:020000040000FA
:030000000200CD2E
:03003300021D2982
:03004B00020E3B67
:03006B00021DDB98
:10007B00020D7A00000080FBE479127807B80002C9
:10008B008004F709D8FCE490F1FF78207906800210
:10009B00F0A3D8FCD9FA7A1E7BF79000DC7815799F
:1000AB00018015E493A3AD82AE838A828B83F0A388
:1000BB00AA82AB838D828E83D8E9D9E712155112B0
:1000CB00007E75D0007581BF7510FF7511F10200B0
:1000DB0083F0007F017F017F017F01870101000019
:1000EB0000005D000012010002020000205104A676
:1000FB0016090001020301090243000201008019E5
:10010B00090400000102020100052400100104246F
:10011B0002020524060001052401000107058203E4
:10012B0040004009040100020A0000000705840298
:10013B0040000107050402400001040309041603F3
:10014B004E006900670068007400730063006F0065
:10015B007500740018034D004D0043006F006D00D7
:10016B006D0061006E0064006500720008033000D2
:10017B00300031000B0100002E010000C3E0960897
:10018B00A3E09608A3E09608A3E09622E96C70061C
:10019B00EA6D7002EB6E22BB0102E722C082C083C4
:1001AB0089828A83BB0003E08002E493D083D082F0
:1001BB0022BB000EC082C0838A838982F0D083D099
:1001CB008222BB0101F722E026F008A3E036F008FB
:1001DB00A3E036F008A3E036F022E0F608A3E0F641
:1001EB0008A3E0F608A3E0F622E6F008A3E6F00881
:1001FB00A3E6F008A3E6F022CAC0E0E6F0A308DA13
:10020B00FAD0E0FA22CAC0E0E0A3C582CCC582C511
:10021B0083CDC583F0A3C582CCC582C583CDC583F1
:10022B00DAE6D0E0CA22600D08C6A2E713C618C6EC
:10023B0013C6D5E0F322600C08C6C313C618C61349
:10024B00C6D5E0F422700422600D18C6C333C6086D
:10025B00C633C6D5E0F41822251010AF08F51040B0
:10026B000C15118008F51040021511D2AF2200C0F9
:10027B00D0251010AF08F510500C05118008F510A3
:10028B0050020511D2AFD0D0222510F58210AF0845
:10029B00F510400C15118008F51040021511D2AF66
:1002AB0085118322C5822510C582C583351110AFF8
:1002BB0007F5118582108007F511858210D2AFC525
:1002CB0083222510F582E43511F583222510FAE4FB
:1002DB003511FB22E4732510C582C0E0E51134FF14
:1002EB00C583C0E0E510C3958224F910AF08858360
:1002FB00118582108008858311858210D2AFCEF0D4
:10030B00A3E520F0A37808E608F0A3DEFAEFF0A34C
:10031B00E58124FBF8E608F0A3E608F0A30808E65D
:10032B0008F0A3E608F0A315811581D0E0FED0E01C
:10033B00F815811581E8C0E0EEC0E02285118385B8
:10034B001082E0A3FEE0A3F5207808E0A3F608DF17
:10035B00FAE0A3FFE0A3C0E0E0A3C0E0E0A3C0E0AD
:10036B00E0A3C0E010AF088582108583118008855B
:10037B008210858311D2AFD083D08222C0D02510BA
:10038B00C582C0E0E51134FFC583C0E0E510C3951D
:10039B008224F310AF088583118582108008858332
:1003AB0011858210D2AFC8F0A3E9F0A3EAF0A3EB5A
:1003BB00F0A37908E709F0A3D8FAECF0A3EDF0A3CA
:1003CB00EEF0A3EFF0A3D0E0F0A3D0E0F0A3D0E0E9
:1003DB00F0A3E520F0A3E5F0F0A3228511838510AF
:1003EB0082E0C0E0A3E0F9A3E0FAA3E0FBA3780866
:1003FB00E0F608A3DFFAE0FCA3E0FDA3E0FEA3E038
:10040B00FFA3E0C0E0A3E0C0E0A3E0F5D0A3E0F5DC
:10041B0020A3E0A3F5F010AF08858311858210802F
:10042B0008858311858210D2AFD082D083D0E0F8BB
:10043B00D0E0327403800474028000C0E0F4041234
:10044B000294D0E012020322740380047402800031
:10045B00CCC0E0EDC0E0E510C39CCCAD1150011D4C
:10046B0010AF068C108D1180068C108D11D2AF122F
:10047B000210D0E0FDD0E0FC2274F81202E179000A
:10048B007E007F0080050EEE70010FC3EE9CEF9D8A
:10049B005025EA2EF582EB3FF583E0C969C9780850
:1004AB008005E9C333F918E860DCE9A2E750F3E90A
:1004BB00C333649BF980EF7F0102034774F7120289
:1004CB00E17C007D00802DECFAEDFBEA75F002A4D7
:1004DB00CAAEF075F000A42EFE75F002EBA42EFB55
:1004EB0074FF2AF58274F13BF583E8F0A3E9F00C75
:1004FB00EC70010DC3EC9400ED940150557800792C
:10050B0000ECFAEDFBE4CAFB7E007F008011E828CB
:10051B00F8E933F9EA2AFAEB33FB0EEE70010FC35D
:10052B00EE9408EF9400509FE86AF508E96BF50923
:10053B00E5085400F508E5095480F509E508450977
:10054B0060CCE828F8E933F9E86421F8E96410F99C
:10055B0080C27F0202034774F51202E1EAFEEBFF51
:10056B007AFF7BFF750A00750B008054EE250AF5A8
:10057B0082EF350BF583E0F508750900EAF8EBF926
:10058B00E4C9F8E86508F8E96509F9E4CAFBE87518
:10059B00F002A4C885F00875F000A42508F50875CD
:1005AB00F002E9A42508F974FF28F58274F139F5F6
:1005BB0083E06AFAA3E06BFB050AE50A7002050B00
:1005CB00C3E50A9CE50B9D40A37F04020347E9F8B2
:1005DB00E8602F14602F14602F14602F14602F14F9
:1005EB00602F14602F14602F14602F14602F146071
:1005FB002F14602F14602F14602F14602F14602F92
:10060B00803079152279312279322279232279347B
:10061B0022792522792622791622791A2279192212
:10062B00792A22790B22792C22790D22790E2279C3
:10063B001C22790022C082C083E9F8E824F57003FC
:10064B0002071E24FE700302073414700302073FD7
:10065B0024F960411470030206F224FD70030207B3
:10066B00081470030206FD24FE700302074A24F9E6
:10067B00604724FE605B14606324FC700302071365
:10068B0024FE700302072924FB601614601F24FE4E
:10069B0060330207558A828B837400F0790002075E
:1006AB005E8A828B837401F0790002075E8A828BEB
:1006BB00837402F0790002075E8A828B837403F0E5
:1006CB00790002075E8A828B837404F0790002073B
:1006DB005E8A828B837405F0790080778A828B83A4
:1006EB007406F07900806C8A828B837407F0790032
:1006FB0080618A828B837408F0790080568A828BA2
:10070B00837409F07900804B8A828B83740AF079A9
:10071B000080408A828B83740BF0790080358A824B
:10072B008B83740CF07900802A8A828B83740DF092
:10073B007900801F8A828B83740EF0790080148A73
:10074B00828B83740FF0790080098A828B8374000B
:10075B00F07901D083D0822274F11202E174FC1281
:10076B000263851082851183EAF0A3EBF074021209
:10077B0002CDECF0A3EDF074151202CDE0F50EA353
:10078B00E0F50F850E82850F837400F0A37400F0E3
:10079B007E007F00750800750900750A00750B0057
:1007AB0002086E851082851183E028FAA3E0398A4E
:1007BB0082F583E0540FF91205D9E9F985080C8508
:1007CB00090D7406780C120250850C08850D09E989
:1007DB00F87900E84508F508E94509F509EE24061E
:1007EB00FEEF3400FFC3EE9408EF9400A2D265D065
:1007FB0033406885080C85090DEE24F8780C12023D
:10080B0031E50CF9E9C0E0850E82850F83E0F8A392
:10081B00E0F974131202CDE028FAA3E0398A82F5CD
:10082B0083D0E0F0850E82850F83E02401F0A3E0F6
:10083B003400F0EE24F8FEEF34FFFF750C01750D5C
:10084B0000EE780C120250E50C24FFF8E50D34FF96
:10085B00F9E85508F508E95509F509050AE50A709F
:10086B0002050B74021202CDE0F8A3E0F9E875F073
:10087B0002A4C8AAF075F000A42AFA75F002E9A444
:10088B002AF9C3E50A98E50B995049A80AA90BE97F
:10089B00C313F9E813F8E8FAE9FBEA75F002A4CA06
:1008AB00ACF075F000A42CFC75F002EBA42CFBE56E
:1008BB000A6A7003E50B6B60030207AE8510828535
:1008CB001183E028FAA3E0398A82F583E0C4540F40
:1008DB00F90207C2EE4F6067750A01750B00EE78DF
:1008EB000A120250E50A24FFF8E50B34FFF9E8552C
:1008FB0008F508E95509F50985080A85090B7408F7
:10090B00C39E780A120250850A08850B09E508F97F
:10091B00E9C0E0850E82850F83E0F8A3E0F974133C
:10092B001202CDE028FAA3E0398A82F583D0E0F0F9
:10093B00850E82850F83E02401F0A3E03400F07470
:10094B00041202797F0802034774F21202E174F970
:10095B0012026374051202CDEAF0A3EBF0740312DA
:10096B0002CDECF0A3EDF0750800750900750E00D3
:10097B00750B0074011202CD7400F0A37400F00229
:10098B000A248E0C8F0DE50824FA780C120231E53F
:10099B000CC0E0851082851183D0E0F08510828534
:1009AB001183E0543FF0AA10AB118510828511839F
:1009BB00E0F9120640E9E50AC454F0F50A530AF0CF
:1009CB00851082851183E0420A630E01E50E701CCF
:1009DB00E50AC0E0A80B790074151202CDE028FAE5
:1009EB00A3E0398A82F583D0E0F0050BE50824FA01
:1009FB00F508E50934FFF509C3E5089406E5099404
:100A0B0000A2D265D033400302098D74011202CDCE
:100A1B00E02401F0A3E03400F074011202CDC08297
:100A2B00C08374031202CDE0F8A3E0F9D083D08227
:100A3B00C3E098A3E0995034E4CEFF74011202CDC9
:100A4B00E0F8A3E0F974051202CDE028FAA3E0392F
:100A5B008A82F583E0F87900E84EFEE94FFFE5085E
:100A6B002408F508E5093400F509808CA80B7900FA
:100A7B0074171202CDE0FAA3E0F5838A82E8F0A3A3
:100A8B00E9F074071202797F07020347D2AF22C243
:100A9B00AF22A2AFE433FA7B00C2AF22EAF8EAA29C
:100AAB00E092AF22EBC313FBEA13FAC3EA9402EB17
:100ABB009400401400000000000000000000EA2435
:100ACB00FFFAEB34FFFB80E32274F81202E1EAFE3B
:100ADB00EBFFEEF8EFF9E824FFFEE934FFFFE849FE
:100AEB0060097AE87B03120AAF80E77F01020347B4
:100AFB0074F51202E1E9FE7AFF7BF3122AFB7A828C
:100B0B007BF4122AFBEE24FC6005146010801C752C
:100B1B000800750996750A00750B00801A75080098
:100B2B007509E1750A00750B00800C7508007509D5
:100B3B00C2750A01750B00AA08AB09AC0AAD0B1202
:100B4B00290E7F0402034774F61202E18A828B831B
:100B5B008C088D097E007F00800AA80A7900EE2898
:100B6B00FEEF39FFC3EE9508EF95095043EEF8E51C
:100B7B0008C398F9E5822EFCE5833FFD7A827BF46E
:100B8B00122B3BE9F50AE50A70D07A057B00120AB5
:100B9B00D4EEF8E508C398F9E5822EFCE5833FFD1A
:100BAB007A827BF4122B3BE9250AF50AE50A70AA37
:100BBB00EEFAEFFB7F03020347020B52ECF9EAFC60
:100BCB00EBFD7AFF7BF3122BF4E9FA7B00227AFF21
:100BDB007BF3122C95E9FA7B0022E5F4A2E0E433D7
:100BEB00F5F453F402C290C29143FE0143FE02227C
:100BFB0053BEFBE5BEA2E650FA0053C6F853C680BF
:100C0B0043BE0422C082C08390DF0074FFF090DFEC
:100C1B00017400F090DF0274FFF090DF037400F0BA
:100C2B0090DF047400F090DF057400F090DF067421
:100C3B0000F090DF077406F090DF087400F090DF8F
:100C4B00097424F090DF0A742EF090DF0B7438F0E7
:100C5B0090DF0C7459F090DF0D7466F090DF0E741A
:100C6B0033F090DF0F7462F090DF10741AF090DFA6
:100C7B00117413F090DF127407F090DF137430F0DF
:100C8B0090DF147418F090DF157417F090DF167462
:100C9B006CF090DF177403F090DF187440F090DF66
:100CAB00197491F090DF1A7456F090DF1B7412F0E8
:100CBB0090DF1C74E9F090DF1D742AF090DF1E7436
:100CCB0000F090DF1F741FF090DF237488F090DF2B
:100CDB00247431F090DF257409F090DF277400F055
:100CEB0090DF287400F090DF297400F090DF2A74F5
:100CFB0000F090DF2B7400F090DF2C7452F090DF3B
:100D0B002D7400F090DF2E7400F0C2A8D083D08237
:100D1B0022C082C0837800790078007900801F742C
:100D2B009328F58274F539F5837400F0741328F564
:100D3B008274F639F5837400F008E8700109C3E892
:100D4B009480E99400A2D265D03340D390F693748B
:100D5B0000F0A37400F090F6957400F0A37400F00B
:100D6B0090F6977400F0A37400F0D083D08222C069
:100D7B00E074F212038774FE120263758A00C2EBF1
:100D8B007C017D00780079008021000AEA70010B5C
:100D9B0074FF6A700374FF6B70F0A29250087C00B2
:100DAB007D007820790008E8700109C3E89420E9F8
:100DBB009400A2D265D03350067A007B0080D174A8
:100DCB00016C700374006D703790F699E0640170DC
:100DDB001390F6997400F0D291851082851183746B
:100DEB0013F0801190F6997401F0C29185108285F1
:100DFB0011837403F07C017D00AA10AB11120BC49C
:100E0B00758A00C2EA74021202797F010203E6C0FE
:100E1B0082C083C29090F6997401F0758A00C2EB80
:100E2B00438C02758D04D2AF439A10D083D08222AB
:100E3B00C0E074EF12038753E4FC758A00C2C190C3
:100E4B00F72A78081201E590F50578081201D2907F
:100E5B00F72E78081201E590F50578081201874006
:100E6B001C75E10475E1027C007D007E007F009023
:100E7B00F505ECF0A3EDF0A3EEF0A3EFF075E401B4
:100E8B007F040203E653E4FC75E200C2B92274F856
:100E9B001202E17C007D007E007F0090F505ECF0F6
:100EAB00A3EDF0A3EEF0A3EFF075E2007F010203D8
:100EBB004774F81202E175E40C75DBFF75DAFF7508
:100ECB00E2007C007D007E007F0090F505ECF0A336
:100EDB00EDF0A3EEF0A3EFF075E544C2C1D2AFD2B3
:100EEB00B975E40E7F0102034774F71202E175082E
:100EFB00897509F578081204427508097509F578A2
:100F0B0008120442120763740412027990F589E007
:100F1B00F8A3E0F9E890DF02F0120E9075E1047C83
:100F2B00007D0074091202CDE0FEA3E0FF801200E9
:100F3B00E824FFF8E934FFF9E84970F30CEC700191
:100F4B000DC3EC9EED9FA2D265D033503675E103F5
:100F5B00780079008018A28950FCC289740928F5A1
:100F6B008274F539F583E0F5D908E870010990F53D
:100F7B0089E0FAA3E0FBC3E89AE99B40D9780079B2
:100F8B001080AD90DF0274FFF075E10475E1021281
:100F9B000EBC7F0202034774F11202E18A0C8B0D27
:100FAB008C0A8D0B75E10475E10290DF0274FFF082
:100FBB0090F59274FFF0120EBC7E007F00805012F1
:100FCB00295F1211E1E5E9A2E6501653E9BF90F54E
:100FDB009274FFF07E007F0075E10475E102120E42
:100FEB0099A28950DA120E90E5D9C0E074092EF55A
:100FFB008274F53FF583D0E0F074092EF58274F519
:10100B003FF583E090F592F0C2890EEE70010FC3AD
:10101B00EE9480EF9400500690F592E070C3EE24AE
:10102B00FFF8EF34FFF990F589E8F0A3E9F075E1EB
:10103B0004780A120442780C12044290F589E0FC01
:10104B00A3E0FD7A097BF512095474041202798529
:10105B000A82850B83E024FFFCA3E034FFFDAA0C7E
:10106B00AB0D120484E9F8850A82850B83E0FAA3A1
:10107B00E0FBE50C2AFAE50D3BFBEA24FFF582EBDE
:10108B0034FFF583E068700579000211DC850A8274
:10109B00850B83E024FEFCA3E034FFFDAA0CAB0D13
:1010AB001205628A088B0985080E85090FA80E8523
:1010BB000A82850B83E0FAA3E0FBE50C2AFAE50D27
:1010CB003BFBEA24FFF582EB34FFF583E068702EDF
:1010DB007408780E120231850A82850B83E0F8A31F
:1010EB00E0F9E50C28F8E50D39F9E824FEF582E97D
:1010FB0034FFF583E0650E700579000211DC850A7B
:10110B0082850B83E024FEFCA3E034FFFDAA0CAB2D
:10111B000D120484E9F8850A82850B83E0FAA3E0BB
:10112B00FBE50C2AFAE50D3BFBEA24FEF582EB34DA
:10113B00FFF583E0687014850A82850B83E024FF3A
:10114B00F0A3E034FFF079000211DC850A82850BF5
:10115B0083E024FDFCA3E034FFFDAA0CAB0D1205CC
:10116B00628A088B0985080E85090F850E08850A8A
:10117B0082850B83E0F8A3E0F9E50C28F8E50D393F
:10118B00F9E824FEF582E934FFF583E06508703C4D
:10119B007408780E120231850A82850B83E0F8A35E
:1011AB00E0F9E50C28F8E50D39F9E824FDF582E9BD
:1011BB0034FFF583E0650E7013850A82850B83E09F
:1011CB0024FFF0A3E034FFF0790080051204C77907
:1011DB00017F0802034774F31202E1748012026369
:1011EB00120BD98A088B0985080A85090B7508002B
:1011FB00750900802DE50AC39508FCE50B9509FDE3
:10120B00851082851183E5822508FAE5833509FB74
:10121B00120BC712295FE5082430F508E5093400E5
:10122B00F509C3E508950AE509950B501AE50AC3BC
:10123B009508F8E50B9509F9C3E89431E99400405A
:10124B00B47C307D0080B97508007509008014905E
:10125B00F697E02401F0A3E03400F00508E50870F0
:10126B00020509C3E508950AE509950B400302152C
:10127B0047851082851183E5822508F582E5833544
:10128B0009F583E0C0E090F697E02493F8A3E034EF
:10129B00F5F988828983D0E0F090F697E0F8A3E027
:1012AB00F9E849600302138590F593E0640170251A
:1012BB0090F697E02401F0A3E03400F090F58B74E6
:1012CB0000F0A37400F090F58D7400F0A37400F09F
:1012DB00120EBC808690F593E06481702690F69791
:1012EB00E02401F0A3E03400F090F58B7401F0A33F
:1012FB007400F090F58D7400F0A37400F0120EBC26
:10130B0002126690F593E064C1702690F697E02484
:10131B0001F0A3E03400F090F58B7400F0A374009F
:10132B00F090F58D7401F0A37400F0120EBC021254
:10133B006690F593E06403600890F593E064137096
:10134B001C90F6997401F0C29190F5937403F07CA4
:10135B00017D007A937BF5120BC402126690F59314
:10136B00E0600302126690F5937459F07C017D00E6
:10137B007A937BF5120BC402126690F697E0640128
:10138B007004A3E06400701A90F594E090F58FF070
:10139B0090F697E02401F0A3E03400F0120E9902CE
:1013AB00126690F697E064027004A3E0640070216B
:1013BB0090F595E0F8790090F590E8F0A3E9F090BE
:1013CB00F697E02401F0A3E03400F0120E9902121C
:1013DB006690F697C3E09403A3E09400A2D265D085
:1013EB00335003021266120E9990F697C082C08397
:1013FB0090F58FE0F87900E82402F8500109D083CA
:10140B00D082E0687003A3E069600302125A120EE7
:10141B009090F58BE064017004A3E0640070399048
:10142B00F697E02401FEA3E03400FF90F697EEF070
:10143B00A3EFF090F58FE0FC7D007A967BF512041C
:10144B0084E9C0E074932EF58274F53FF583D0E008
:10145B00F090F58FE02401F090F58DE064017004BD
:10146B00A3E06400706D90F58FE0FC7D007A967BB5
:10147B00F51205628A0C8B0DAA0CAB0D90F697E05A
:10148B002401F0A3E03400F08A0C8B0D7408780C67
:10149B00120231E50CC0E090F697E02493F8A3E03C
:1014AB0034F5F988828983D0E0F090F697E0240137
:1014BB00F0A3E03400F0EAC0E090F697E02493F854
:1014CB00A3E034F5F988828983D0E0F090F58FE0C2
:1014DB002402F090F58FE0FC7D007A967BF51216D6
:1014EB00A6E9703490F59012045790F58FE0FC7DCF
:1014FB00007A967BF5120EF474021202791204C76D
:10150B007C037D007A937BF5120BC490F6977400E5
:10151B00F0A37400F002126690F5947400F090F54D
:10152B00957400F07C037D007A937BF5120BC490CD
:10153B00F6977400F0A37400F00212667480120226
:10154B00797F060203477582FB7583FE1202AF1289
:10155B000D1C120BE5120BFB1204C7120C0F120E13
:10156B001A7A007905120AFB801A74021202CD74E2
:10157B0004F07C017D0074021202D7120BC41229F5
:10158B005F1211E1AC10AD1174051202D7120FA24C
:10159B00E9FA851082851183E0F8A3E0F9E8496048
:1015AB00E3780074016860C2EA700890F613740265
:1015BB00F0800690F6137482F0851082851183E01B
:1015CB00F8A3E0F9E890F614F07E008028EEF879A5
:1015DB000074051202CDE58228F582E58339F58387
:1015EB00E0C0E0EEF87900741528F58274F639F551
:1015FB0083D0E0F00EEEF87900851082851183E040
:10160B00FAA3E0FBC3E89AE99B40C28510828511DF
:10161B0083E02402F8A3E03400F990F693E8F0A3FA
:10162B00E9F07E00802290F693EEF87900E0C39803
:10163B00FCA3E099FDEEF87900741328FA74F639DF
:10164B00FB120BC474302EFEEEF8790090F693E08B
:10165B00FAA3E0FBC3E89AE99BA2D265D03340031F
:10166B0002158F90F693EEF87900E0C398F8A3E09B
:10167B0099F9C3E89431E99400A2D265D03340A61E
:10168B007C307D00EEF87900741328FA74F639FB80
:10169B00120BC412295F1211E180A9790022C082BA
:1016AB00C08390F6B6E06422701E90F6A3E0704201
:1016BB0090F6B7E0F8A3E0F990F6DAE8F0A3E9F0DA
:1016CB0090F6A37402F0802A90F6B6E06420701CAA
:1016DB0090F6A3E0701C90F6B074D3F0A374F6F000
:1016EB00A37400F090F6A37402F0800690F6A37436
:1016FB0004F0D083D08222C082C08390F6B6E0641F
:10170B0021702690F6A3E0702690F6B074D3F0A368
:10171B0074F6F0A37400F090F6B37407F0A37400A2
:10172B00F090F6A37401F0800690F6A37404F0D049
:10173B0083D08222C082C08390F6A37404F0D0833E
:10174B00D08222C082C08390F6A37404F0D083D0E1
:10175B008222C082C08390F6A37404F0D083D0821F
:10176B0022C082C08390F6A37404F0D083D082226F
:10177B00E914601914601614601314601014600DD2
:10178B0014600A146007146004146001142222C050
:10179B0082C08390F71EE0F8A3E0F990F69AE8F088
:1017AB00A3E9F0D083D08222C082C083E9FCEAFD9A
:1017BB007A007B00802290F69AE0F8A3E0F583880C
:1017CB0082E493F8790090F69AE028F8A3E039F9CF
:1017DB0090F69AE8F0A3E9F090F69AE0F8A3E0F916
:1017EB0090F720E0687003A3E069605790F69AE0E9
:1017FB00F8A3E0F5838882A3E4936C702C90F69A9F
:10180B00E0FAA3E0FB90F69AE0F8A3E0F583888278
:10181B00E493F8790090F69AE028F8A3E039F99070
:10182B00F69AE8F0A3E9F0801A90F69AE0F8A3E0B4
:10183B00F5838882A3E4936D60030217C1ED7003F7
:10184B000217C1D083D0822212179A7A0079010233
:10185B0017B374F71202E1E9FFEAFE12179A7A0046
:10186B0079021217B38A088B09AA08AB09EA4B60F5
:10187B001CEF60108A828B83A3A3A3A3A3E4936FB3
:10188B0070DC8009EEF874FF28FEE870D17F02024D
:10189B00034774F51202E1E9FEEAFF8B087A00EECA
:1018AB00F912185D7A0279041217B38A0A8B0BAA04
:1018BB000AAB0BEA4B60188A828B83A3A3E4936F6A
:1018CB0070E28A828B83A3A3A3E493650870D57F10
:1018DB000402034774F71202E1E9FE12179A7A0029
:1018EB0079031217B38A088B09AA08AB09EEF874AF
:1018FB00FF28FEE870E87F0202034774F71202E14B
:10190B007A00790112185D8A088B0985088285098E
:10191B0083A3A3A3A3A3A3A3E493A2E6500890F6E7
:10192B00AF7401F0800690F6AF7400F090F6AE74D1
:10193B0000F043BE80D2BD7F02020347C082C0834A
:10194B0090F69C7402F090F69D7400F090F6A374E0
:10195B0000F07903121C22751200751300D083D08E
:10196B00822274F61202E190DE0EE0FF90DE0E741E
:10197B0000F090DE11E0F508E508A2E4502190DEBE
:10198B00117480F090F6A37407F0E512451360090B
:10199B008512828513831202DF90F6A37400F0E5A3
:1019AB0008A2E2500C90DE117400F090F6A37400C4
:1019BB00F090F6A3E064026003021A4E90DE16E08C
:1019CB00FE90F6B0120453EEF97A207BDE121C69FE
:1019DB007403120279EEF8790090F6B3C3E098F035
:1019EB00A3E099F0EEFC7D0090F6B0E0F9A3E0FAED
:1019FB00A3E0FBE92CF9EA3DFA90F6B0E9F0A3EA93
:101A0B00F0A3EBF090F6B3E0F8A3E0F9E84960043B
:101A1B0074408002744890DE11F090F6B3E0F8A3A6
:101A2B00E0F9E8497015E5124513600985128285C6
:101A3B0013831202DF90F6A37400F0EF90DE0EF02A
:101A4B00021C1D90F6A3E0640670098512828513B3
:101A5B00831202DF90F6A3E06003021B71E508A27C
:101A6B00E04003021B717508B57509F6750A00781D
:101A7B000812043E79087A207BDE121C697403126B
:101A8B00027975120075130090F6B5E0F87900E84D
:101A9B0054E0F8E95400F9E8601D24E07003021BE0
:101AAB004224E0607C24C0604824E07003021B4D9C
:101ABB0024E06078021B5890F6B6E014601C24FEFC
:101ACB00601324FE600A24FC601524FE6016801946
:101ADB001220B0807E1220A480791220988074127C
:101AEB002627806F122798806A90F6A37404F080E3
:101AFB006290F6B6E0600E24FA600F24FE601024AC
:101B0B00FE60118014121DFE8049122121804412A7
:101B1B0025D2803F12272D803A90F6A37404F080D3
:101B2B003275123F75131712173F802775124E75BA
:101B3B00131712174E801C7512A97513161216A9BE
:101B4B008011751202751317121702800690F6A3F7
:101B5B007404F090F6A3E06404700478608002785B
:101B6B0040E890DE11F090F6A3E064016003021CE4
:101B7B000775080290F6B3C3E09420A3E0940050DD
:101B8B001390F6B3E0F8A3E0F9E8FED3E50892E38F
:101B9B00F50880027E2090F6B0120453EEF97A20FD
:101BAB007BDE121CA17403120279EEFC7D0090F611
:101BBB00B0E0F9A3E0FAA3E0FBE92CF9EA3DFA90D7
:101BCB00F6B0E9F0A3EAF0A3EBF0EEF8790090F6AB
:101BDB00B3C3E098F0A3E099F0E50890DE11F0EEC6
:101BEB00C394205028E51245136009851282851392
:101BFB00831202DF90F6A37400F0801190F6A3E03D
:101C0B00640570098512828513831202DFEF90DE63
:101C1B000EF07F03020347C082C08378008015E972
:101C2B00C0E0E8FA7B0074A42AF58274F63BF583D6
:101C3B00D0E0F008E8C3940540E578008015E9C0D2
:101C4B00E0E8FA7B0074A92AF58274F63BF583D0A1
:101C5B00E0F008E8C3940540E5D083D0822274F805
:101C6B001202E1EAFCEBFDE9F874081202CDE0F98F
:101C7B00A3E0FAA3E0FBE860188C828D83E0C0E060
:101C8B00D0E01201BCE92401F9EA3400FA18E8703B
:101C9B00E87F0102034774F81202E1EAFCEBFDE96D
:101CAB00F874081202CDE0F9A3E0FAA3E0FBE860B8
:101CBB00181201A2C0E08C828D83D0E0F0E92401E0
:101CCB00F9EA3400FA18E870E87F0102034774F769
:101CDB001202E17514007515007516008A178B1822
:101CEB00EA90DE0BF08A088B097404780812024123
:101CFB00E50890DE07F08A088B0974097808120250
:101D0B0041E508543E90DE09F0438C10758900C202
:101D1B00C5758B00C2E8439A027F02020347C0E0FD
:101D2B0074F1120387E5BEA2E650FA90DE06E0F9E5
:101D3B00E9A2E25038AA17AB18EA90DE0BF0851730
:101D4B000885180974047808120241E50890DE072B
:101D5B00F085170885180974097808120241E508FF
:101D6B00543E90DE09F090DE01E0D2E0F0E9FA7B20
:101D7B00007814EA46F608EB46F61890DE02E0F51A
:101D8B0008750900740478081202507814E50846A7
:101D9B00F608E50946F61890DE04E0F5087509002B
:101DAB00740978081202507814E50846F608E5091C
:101DBB0046F618E9A2E05003751601740659600344
:101DCB00751600121799758B00C2E87F020203E6A5
:101DDB00C0E074F2120387E5BEA2E650FAA889E8C8
:101DEB00A2E75005C2BD1228ED758900C2C57F015F
:101DFB000203E6C082C08390F6B7E0F8A3E0F9E8EF
:101E0B0049701E90F6B9E05400F8A3E054FFF9E8CE
:101E1B0049700E90F6BBE064027004A3E0640060AE
:101E2B000990F6A37404F0021F5690F6B5E02480D7
:101E3B00600914604C146066021F2A90F6B9E0F832
:101E4B00A3E0F9E854FF600890F6A37404F0802E29
:101E5B0090F6AFE0600C90F6BD7401F0A37400F047
:101E6B00800A90F6BD7400F0A37400F090F6AEE01B
:101E7B00600C90F6BDE04402F0A3E04400F0021FBA
:101E8B003090F69CE06404600890F6A37404F08034
:101E9B000A90F6BD7400F0A37400F0021F3090F6A8
:101EAB00B9E0F8A3E0F9E8547FF890F69CE06404FD
:101EBB007006E8C39406400890F6A37404F080659E
:101ECB0090F6B9E0FAA3E0FBEA548060297900743C
:101EDB00A328F58274F639F583E06403700C90F651
:101EEB00BD7401F0A37400F0803B90F6BD7400F05C
:101EFB00A37400F0802F790074A828F58274F6394A
:101F0B00F583E06403700C90F6BD7401F0A37400CC
:101F1B00F0801290F6BD7400F0A37400F080069070
:101F2B00F6A37404F090F6A3E06404601E90F6B080
:101F3B0074BDF0A374F6F0A37400F090F6B37402C2
:101F4B00F0A37400F090F6A37401F0D083D082223A
:101F5B0074F81202E1E9FE90F6BBE0F8A3E0F9E8B1
:101F6B0049701490F69CE06404601590F6B9E0F8A3
:101F7B00A3E0F9E849600990F6A37404F0022091FC
:101F8B0090F6B5E0F87900E8541FF8E95400F9E849
:101F9B00600914603014603202208B90F6B7E0F8C1
:101FAB00A3E0F9E854FF640160057900022093EE89
:101FBB0090F6AEF0EE60047905800279067A001295
:101FCB00177B022091790002209390F6B9E0F8A3D9
:101FDB00E0F9E8547FFA90F6B7E0F8A3E0F9E8549B
:101FEB00FF60057900022093EAC39406400990F63E
:101FFB00A37404F0022091EA90DE0EF090F6B9E0A3
:10200B00F8A3E0F9E854806038EE600474108002A5
:10201B00744090DE11F0EE6004780380027800E8E3
:10202B00C0E0EAF8790074A328F58274F639F583D9
:10203B00D0E0F0EE600479088002790712177B80FC
:10204B0037EE6004782080027880E890DE14F0EEA2
:10205B006004780380027800E8C0E0EAF879007445
:10206B00A828F58274F639F583D0E0F0EE60047998
:10207B000A8002790912177B90DE0E7400F080063D
:10208B0090F6A37404F079017F01020347790012E3
:10209B001F5BE9700312175D227901121F5BE97058
:1020AB000312176C22C082C08390F6B9E0F8A3E04C
:1020BB00F9E849701C90F6BBE0F8A3E0F9E8497029
:1020CB001090F6B7E05480F8A3E054FFF9E84960AC
:1020DB000890F6A37404F0803890F6B7E0F8A3E00C
:1020EB00F9E890DE00F090F6B7E0F8A3E0F9E854D9
:1020FB00FF601090F69CE06402701690F69C7403DF
:10210B00F0800E90F69CE06403700690F69C7402CF
:10211B00F0D083D0822274F61202E190F6B7E0F889
:10212B00A3E0F9E4C9F8E814600C14603D147003E3
:10213B000221EF02222D1218538A088B09750A808F
:10214B0090F6B0E508F0A3E509F0A3E50AF090F6E8
:10215B00B0E0F9A3E0FAA3E0FB1201A2F87900903A
:10216B00F6B3E8F0A3E9F00223FD90F6B7E0FAA38B
:10217B00E0FB790012185D8A088B09750A8090F6CE
:10218B00B0E508F0A3E509F0A3E50AF090F6B0E09E
:10219B00F9A3E0FAA3E0FBE92402F9EA3400FA120E
:1021AB0001A2FC7D0090F6B0E0F9A3E0FAA3E0FBFE
:1021BB00E92403F9EA3400FA1201A2F87900E87570
:1021CB00F000A4C8AAF075F001A42AFA75F000E992
:1021DB00A42AF9EC28F8ED39F990F6B3E8F0A3E965
:1021EB00F00223FD90F6B7E0F8A3E0F9E8F9121836
:1021FB00DF8A088B09750A8090F6B0E508F0A3E535
:10220B0009F0A3E50AF090F6B0E0F9A3E0FAA3E039
:10221B00FB1201A2F8790090F6B3E8F0A3E9F00203
:10222B0023FD90F6B07400F0A37400F0A37400F0DB
:10223B007C000223C9ECF87900E875F008A4C8AA61
:10224B00F075F000A42AFA75F008E9A42AF990F7C2
:10225B0022E028FAA3E0398A82F583E493FA7B0023
:10226B0090F6B7E0F8A3E0F9E4C9F8E86A7002E980
:10227B006B60030223C8ECF87900E875F008A4C87A
:10228B00AAF075F000A42AFA75F008E9A42AF990CF
:10229B00F722E028FAA3E0398A82F583A3E493F8C6
:1022AB00790090F6B7E054FFFAA3E05400FBEA681C
:1022BB007002EB6960030223C8ECF87900E875F053
:1022CB0008A4C8AAF075F000A42AFA75F008E9A4CE
:1022DB002AF990F722E028FAA3E0398A82F583A342
:1022EB00A3E493FA7B0090F6B9E0F8A3E0F9E4C914
:1022FB00F8E86A7002E96B60030223C8ECF8790016
:10230B00E875F008A4C8AAF075F000A42AFA75F0D5
:10231B0008E9A42AF990F722E028FAA3E0398A8287
:10232B00F583A3A3A3E493F8790090F6B9E054FFE7
:10233B00FAA3E05400FBEA687002EB69707FECF8DB
:10234B007900E875F008A4C8AAF075F000A42AFA81
:10235B0075F008E9A42AF990F722E028FAA3E039EE
:10236B008A82F583A3A3A3A3E493F508740193F5E1
:10237B0009750A8090F6B0E508F0A3E509F0A3E52E
:10238B000AF0ECF87900E875F008A4C8AAF075F02B
:10239B0000A42AFA75F008E9A42AF990F722E0289C
:1023AB00FAA3E0398A82F583A3A3A3A3A3A3E4939F
:1023BB00F8740193F990F6B3E8F0A3E9F00CECFA9A
:1023CB007B0090F724C082C08390F722E0F8A3E053
:1023DB00F9D083D082E0C398F508A3E099F509748E
:1023EB00037808120241C3EA9508EB9509500302E2
:1023FB00224090F6B0E0FCA3E0FDA3E0FE79007A6A
:10240B00007B00120197700690F6A37404F090F60F
:10241B00A3E06404603190F6BBC082C08390F6B336
:10242B00E0F8A3E0F9D083D082C3E098A3E0995001
:10243B001090F6BBE0F8A3E0F990F6B3E8F0A3E94F
:10244B00F090F6A37401F07F0302034774F11202BC
:10245B00E18A0E8B0F850E82850F83A3A3A3A3E4C2
:10246B0093602690F726E0FEA3E0FF8007EE24049E
:10247B00FE50010F8E828F83E493F8740193F9E57C
:10248B000E687003E50F6970E4750800806390DED9
:10249B00147490F090DE147410F0850C82850D830B
:1024AB00A3A3A3E493540364017005D3E992E6F963
:1024BB00750A01750B00EC780A1202508E828F831D
:1024CB00A3A3A3E493550A6005D3E992E0F9E9903D
:1024DB00DE15F0EA90DE13F0ECF8790074A828F51D
:1024EB008274F639F5837400F090DE0E7400F005FB
:1024FB0008850E82850F83A3A3A3A3E493F8E508B5
:10250B00C39840030225CD7A0079051217B38A0AC6
:10251B008B0B850A0C850B0DE50C450D60D1850CDD
:10252B0082850D83A3A3E493540FFCEC90DE0EF095
:10253B007900850C82850D83A3A3A3A3E4932407C1
:10254B00F50AA3E4933400F50B7403780A120241E5
:10255B00AA0AAB0B850C82850D83A3A3E493A2E798
:10256B00400302249990DE117448F090DE11740838
:10257B00F0850C82850D83A3A3A3E493540364011C
:10258B007005D3E992E6F9750A01750B00EC780A30
:10259B001202508E828F83A3A3E493550A6005D356
:1025AB00E992E0F9E990DE12F0EA90DE10F0ECF837
:1025BB00790074A328F58274F639F5837400F00260
:1025CB0024F47F08020347C082C08390F6B7E0F87B
:1025DB00A3E0F9E849701A90F6B9E0F8A3E0F9E83E
:1025EB0049700E90F6BBE064017004A3E0640060D8
:1025FB000890F6A37404F0801E90F6B0749DF0A3BF
:10260B0074F6F0A37400F090F6B37401F0A37400A9
:10261B00F090F6A37401F0D083D0822274F51202ED
:10262B00E190F69CE06402602890F6B9E0F8A3E034
:10263B00F9E849701C90F6BBE0F8A3E0F9E84970A3
:10264B001090F6B7E05400F8A3E054FFF9E84960A6
:10265B000990F6A37404F00227287A007901121767
:10266B007B90F6B7E0F8A3E0F9E854FF700302277C
:10267B00097A0090F6B7E0F8A3E0F9E8F912185DD3
:10268B008A088B09AE08AF09EE4F606A90F69C740E
:10269B0004F090F6B7E0F8A3E0F9E890F69DF0753A
:1026AB0008008E828F83A3A3A3A3E493F8E508C34A
:1026BB00985063A8087900749E28F58274F639F552
:1026CB00837400F07A0079041217B38A0A8B0BAA71
:1026DB000AAB0B8A828B83A3A3A3E493FCA8087990
:1026EB0000749E28F58274F639F583E06C70D51270
:1026FB002457050880AC90F6A37404F0801890F66C
:10270B00B7E0F8A3E0F9E890F69DF090F69C74031F
:10271B00F07903121C227A00790212177B7F0402D4
:10272B00034774F61202E190F69CE0640470229069
:10273B00F6B5E06481701A90F6B7E0F8A3E0F9E81B
:10274B0049700E90F6BBE064017004A3E064006076
:10275B000890F6A37404F0802F90F6B9E0249EF550
:10276B0008A3E034F6F509750A0090F6B0E508F019
:10277B00A3E509F0A3E50AF090F6B37401F0A37496
:10278B0000F090F6A37401F07F0302034774F71275
:10279B0002E190F69CE06404701490F6B5E06401DD
:1027AB00700C90F6BBE0F8A3E0F9E849600890F6EE
:1027BB00A37404F0807390F6B7E0F8A3E0F9E8FB9C
:1027CB0090F6B9E0F8A3E0F9E8FA90F69DE0F9127B
:1027DB00189D8A088B09A808A909E8FEE9FFE849B2
:1027EB00604190F6B9E0FAA3E0FB790312177B90F6
:1027FB00F6B7E0F8A3E0F9E8C0E090F6B9E0249E64
:10280B00F8A3E034F6F988828983D0E0F0EEFAEF92
:10281B00FB12245790F6B9E0FAA3E0FB79041217E8
:10282B007B800690F6A37404F07F02020347C082FC
:10283B00C083C29190F6CFE0F8A3E0F9E849600EAF
:10284B0090F6CFE0F8A3E0F58388821202DF90F6D2
:10285B00BF7453F090F6C074BEF090F6C174FCF0E8
:10286B0090F6C27443F090F6C374BEF090F6C47445
:10287B0001F090F6C57475F090F6C67487F090F67B
:10288B00C77401F090F6C874E5F090F6C97416F0B1
:10289B0090F6CA7470F090F6CB74F3F090F6CC749B
:1028AB0022F0758900C2C5D2BD78BF79F690F6CDFE
:1028BB00E8F0A3E9F090F6CDE0F8A3E0F583888289
:1028CB001202DF90F6D1E0F8A3E0F9E849600E9030
:1028DB00F6D1E0F8A3E0F58388821202DFD083D033
:1028EB008222C082C08390F6C47400F090F6C57447
:1028FB0000F090F6C67400F090F6C77400F0D08329
:10290B00D0822274F51202E18A088B098C0A8D0B96
:10291B0090F6D378081201F490F6D77400F090F685
:10292B00D87400F090F6D97408F090F6DA7400F0D1
:10293B00A37400F090F6DC7401F01219067AFF7B99
:10294B00FF121CD953F4FED29043FE01120A977F5B
:10295B0004020347C082C08312298390F6DCE06037
:10296B001290F6DAE0F8A3E0F9E8496006122A5073
:10297B001229D8D083D08222A814A915E854046058
:10298B000F7814E654FBF608E654FFF618121947B5
:10299B00A814A915E85410600F7814E654EFF60844
:1029AB00E654FFF61812196DA814A915E8A2E05009
:1029BB001B7814E654FEF608E654FFF61812283975
:1029CB007814E654FDF608E654FFF6182274F61256
:1029DB0002E1120A9A90DE0EE090F71DF090DE0EE7
:1029EB007404F090DE11E0A2E0404A7A827BF4128C
:1029FB002C95E9FEEE603EEEC3944140027E40EE24
:102A0B00F97CDD7DF67A827BF4122BF4E97508DD17
:102A1B007509F6750A00780812043EEEF97A287BE0
:102A2B00DE121CA1740312027990DE0E7404F09076
:102A3B00DE117401F090F71DE090DE0EF0120A9794
:102A4B007F0302034774F61202E1120A9A90DE0E1C
:102A5B00E090F71DF090DE0E7404F090DE14E0A20F
:102A6B00E0507D90DE16E0FF90DE17E0FE7AFF7BF4
:102A7B00F3122C95E9F879007480C398FA740099D5
:102A8B00FBEFF87900C3EA98EB99A2D265D03350EB
:102A9B00107AFF7BF3122C95E9F87480C398FE80B3
:102AAB0002EFFEEE603A7508DD7509F6750A0078DF
:102ABB000812043EEEF97A287BDE121C69740312AD
:102ACB000279EEF97CDD7DF67AFF7BF3122B3BE985
:102ADB00EE6F700C90DE0E7404F090DE147400F048
:102AEB0090F71DE090DE0EF0120A977F030203476A
:102AFB0074F71202E1EAFEEBFF120A9D8A088B09BA
:102B0B00AA08AB09EE2480F582E43FF5837400F04C
:102B1B00EE2481F582E43FF5837400F0EE2482F518
:102B2B0082E43FF5837400F0120AA77F0202034789
:102B3B0074F31202E1EAFEEBFF8C088D09890A128D
:102B4B000A9D8A0C8B0DAA0CAB0DEE2480F582E44A
:102B5B003FF583E0FC7D00A80A7900EC28F8ED39FD
:102B6B00F9C3E89480E99400A2D265D033506D7517
:102B7B000B008052A80B7900E50828F582E509398E
:102B8B00F583E0C0E0EE2482F582E43FF583E0F8C4
:102B9B007900EE28F582EF39F583D0E0F0EE248250
:102BAB00F582E43FF583E02401F0EE2482F582E424
:102BBB003FF583E06480700CEE2482F582E43FF5F0
:102BCB00837400F0050BE50BC3950A40A7EE248038
:102BDB00F582E43FF583E0250BF08003750B0012C3
:102BEB000AA7A90B7F0602034774F31202E1EAFE60
:102BFB00EBFF8C088D09890A120A9D8A0C8B0DAA92
:102C0B000CAB0D750B008052EE2481F582E43FF581
:102C1B0083E0F87900EE28F582EF39F583E0C0E028
:102C2B00A80B7900E50828F582E50939F583D0E092
:102C3B00F0EE2481F582E43FF583E02401F0EE24ED
:102C4B0081F582E43FF583E06480700CEE2481F51E
:102C5B0082E43FF5837400F0050BE50BC3950A5036
:102C6B0011EE2480F582E43FF583E0F8E50BC39881
:102C7B004096EE2480F582E43FF583E0C3950BF09C
:102C8B00120AA7A90B7F06020347C082C083EA245E
:0E2C9B0080F582E43BF583E0F9D083D08222FD
:04000005000000CD2A
:00000001FF
